{
  "_format": "hh-sol-artifact-1",
  "contractName": "ZkmlVerifierRegistry",
  "sourceName": "contracts/ZkmlVerifierRegistry.sol",
  "abi": [
    {
      "anonymous": false,
      "inputs": [
        {
          "indexed": true,
          "internalType": "address",
          "name": "user",
          "type": "address"
        },
        {
          "indexed": false,
          "internalType": "bytes32",
          "name": "hash",
          "type": "bytes32"
        }
      ],
      "name": "ProofSubmitted",
      "type": "event"
    },
    {
      "inputs": [
        {
          "internalType": "address",
          "name": "user",
          "type": "address"
        }
      ],
      "name": "getHash",
      "outputs": [
        {
          "internalType": "bytes32",
          "name": "",
          "type": "bytes32"
        }
      ],
      "stateMutability": "view",
      "type": "function"
    },
    {
      "inputs": [
        {
          "internalType": "address",
          "name": "user",
          "type": "address"
        },
        {
          "internalType": "bytes32",
          "name": "expectedHash",
          "type": "bytes32"
        }
      ],
      "name": "isVerified",
      "outputs": [
        {
          "internalType": "bool",
          "name": "",
          "type": "bool"
        }
      ],
      "stateMutability": "view",
      "type": "function"
    },
    {
      "inputs": [
        {
          "internalType": "address",
          "name": "",
          "type": "address"
        }
      ],
      "name": "publicHash",
      "outputs": [
        {
          "internalType": "bytes32",
          "name": "",
          "type": "bytes32"
        }
      ],
      "stateMutability": "view",
      "type": "function"
    },
    {
      "inputs": [
        {
          "internalType": "bytes32",
          "name": "hash",
          "type": "bytes32"
        }
      ],
      "name": "submitProof",
      "outputs": [],
      "stateMutability": "nonpayable",
      "type": "function"
    }
  ],
  "bytecode": "0x6080604052348015600f57600080fd5b506104058061001f6000396000f3fe608060405234801561001057600080fd5b506004361061004c5760003560e01c80631da0b8fc1461005157806390533fa814610081578063ba03e205146100b1578063bf084408146100e1575b600080fd5b61006b6004803603810190610066919061029f565b6100fd565b60405161007891906102e5565b60405180910390f35b61009b6004803603810190610096919061029f565b610145565b6040516100a891906102e5565b60405180910390f35b6100cb60048036038101906100c6919061032c565b61015d565b6040516100d89190610387565b60405180910390f35b6100fb60048036038101906100f691906103a2565b6101a8565b005b60008060008373ffffffffffffffffffffffffffffffffffffffff1673ffffffffffffffffffffffffffffffffffffffff168152602001908152602001600020549050919050565b60006020528060005260406000206000915090505481565b6000816000808573ffffffffffffffffffffffffffffffffffffffff1673ffffffffffffffffffffffffffffffffffffffff1681526020019081526020016000205414905092915050565b806000803373ffffffffffffffffffffffffffffffffffffffff1673ffffffffffffffffffffffffffffffffffffffff168152602001908152602001600020819055503373ffffffffffffffffffffffffffffffffffffffff167f6001ac408879869d65636618cd8495cce3026445823e6de88d46ade8a9c81c798260405161023191906102e5565b60405180910390a250565b600080fd5b600073ffffffffffffffffffffffffffffffffffffffff82169050919050565b600061026c82610241565b9050919050565b61027c81610261565b811461028757600080fd5b50565b60008135905061029981610273565b92915050565b6000602082840312156102b5576102b461023c565b5b60006102c38482850161028a565b91505092915050565b6000819050919050565b6102df816102cc565b82525050565b60006020820190506102fa60008301846102d6565b92915050565b610309816102cc565b811461031457600080fd5b50565b60008135905061032681610300565b92915050565b600080604083850312156103435761034261023c565b5b60006103518582860161028a565b925050602061036285828601610317565b9150509250929050565b60008115159050919050565b6103818161036c565b82525050565b600060208201905061039c6000830184610378565b92915050565b6000602082840312156103b8576103b761023c565b5b60006103c684828501610317565b9150509291505056fea2646970667358221220a5d3242a18fddb40f5279411ac646b505fb69b29b7aa69b0ab9697eac588257864736f6c634300081c0033",
  "linkReferences": {},
  "deployedLinkReferences": {}
}